{
  "contractName": "Tarifas",
  "abi": [
    {
      "inputs": [
        {
          "internalType": "address",
          "name": "_dirContrato",
          "type": "address"
        }
      ],
      "stateMutability": "nonpayable",
      "type": "constructor"
    },
    {
      "inputs": [],
      "name": "Admin",
      "outputs": [
        {
          "internalType": "address",
          "name": "",
          "type": "address"
        }
      ],
      "stateMutability": "view",
      "type": "function",
      "constant": true
    },
    {
      "inputs": [],
      "name": "CosteDemo",
      "outputs": [
        {
          "internalType": "uint256",
          "name": "",
          "type": "uint256"
        }
      ],
      "stateMutability": "view",
      "type": "function",
      "constant": true
    },
    {
      "inputs": [],
      "name": "CosteT1",
      "outputs": [
        {
          "internalType": "uint256",
          "name": "",
          "type": "uint256"
        }
      ],
      "stateMutability": "view",
      "type": "function",
      "constant": true
    },
    {
      "inputs": [],
      "name": "CosteT2",
      "outputs": [
        {
          "internalType": "uint256",
          "name": "",
          "type": "uint256"
        }
      ],
      "stateMutability": "view",
      "type": "function",
      "constant": true
    },
    {
      "inputs": [],
      "name": "CosteT3",
      "outputs": [
        {
          "internalType": "uint256",
          "name": "",
          "type": "uint256"
        }
      ],
      "stateMutability": "view",
      "type": "function",
      "constant": true
    },
    {
      "inputs": [],
      "name": "CosteT4",
      "outputs": [
        {
          "internalType": "uint256",
          "name": "",
          "type": "uint256"
        }
      ],
      "stateMutability": "view",
      "type": "function",
      "constant": true
    },
    {
      "inputs": [
        {
          "internalType": "uint256",
          "name": "",
          "type": "uint256"
        }
      ],
      "name": "Patinetes",
      "outputs": [
        {
          "internalType": "uint256",
          "name": "IdPatinete",
          "type": "uint256"
        },
        {
          "internalType": "uint256",
          "name": "deadLine",
          "type": "uint256"
        },
        {
          "internalType": "address payable",
          "name": "direccion",
          "type": "address"
        },
        {
          "internalType": "address",
          "name": "usuarioActual",
          "type": "address"
        }
      ],
      "stateMutability": "view",
      "type": "function",
      "constant": true
    },
    {
      "inputs": [],
      "name": "TiempoDemo",
      "outputs": [
        {
          "internalType": "uint256",
          "name": "",
          "type": "uint256"
        }
      ],
      "stateMutability": "view",
      "type": "function",
      "constant": true
    },
    {
      "inputs": [],
      "name": "TiempoT1",
      "outputs": [
        {
          "internalType": "uint256",
          "name": "",
          "type": "uint256"
        }
      ],
      "stateMutability": "view",
      "type": "function",
      "constant": true
    },
    {
      "inputs": [],
      "name": "TiempoT2",
      "outputs": [
        {
          "internalType": "uint256",
          "name": "",
          "type": "uint256"
        }
      ],
      "stateMutability": "view",
      "type": "function",
      "constant": true
    },
    {
      "inputs": [],
      "name": "TiempoT3",
      "outputs": [
        {
          "internalType": "uint256",
          "name": "",
          "type": "uint256"
        }
      ],
      "stateMutability": "view",
      "type": "function",
      "constant": true
    },
    {
      "inputs": [],
      "name": "TiempoT4",
      "outputs": [
        {
          "internalType": "uint256",
          "name": "",
          "type": "uint256"
        }
      ],
      "stateMutability": "view",
      "type": "function",
      "constant": true
    },
    {
      "inputs": [],
      "name": "ViCERC20",
      "outputs": [
        {
          "internalType": "contract ViCOIN",
          "name": "",
          "type": "address"
        }
      ],
      "stateMutability": "view",
      "type": "function",
      "constant": true
    },
    {
      "inputs": [],
      "name": "ViCSale",
      "outputs": [
        {
          "internalType": "contract ViCOINSale",
          "name": "",
          "type": "address"
        }
      ],
      "stateMutability": "view",
      "type": "function",
      "constant": true
    },
    {
      "inputs": [
        {
          "internalType": "uint256",
          "name": "_IdPatinete",
          "type": "uint256"
        }
      ],
      "name": "tarifa1",
      "outputs": [],
      "stateMutability": "payable",
      "type": "function",
      "payable": true
    },
    {
      "inputs": [
        {
          "internalType": "uint256",
          "name": "_IdPatinete",
          "type": "uint256"
        }
      ],
      "name": "tarifa2",
      "outputs": [],
      "stateMutability": "payable",
      "type": "function",
      "payable": true
    },
    {
      "inputs": [
        {
          "internalType": "uint256",
          "name": "_IdPatinete",
          "type": "uint256"
        }
      ],
      "name": "tarifa3",
      "outputs": [],
      "stateMutability": "payable",
      "type": "function",
      "payable": true
    },
    {
      "inputs": [
        {
          "internalType": "uint256",
          "name": "_IdPatinete",
          "type": "uint256"
        }
      ],
      "name": "tarifa4",
      "outputs": [],
      "stateMutability": "payable",
      "type": "function",
      "payable": true
    },
    {
      "inputs": [
        {
          "internalType": "uint256",
          "name": "_IdPatinete",
          "type": "uint256"
        }
      ],
      "name": "tarifaDemo",
      "outputs": [],
      "stateMutability": "payable",
      "type": "function",
      "payable": true
    },
    {
      "inputs": [
        {
          "internalType": "uint256",
          "name": "NTarifa",
          "type": "uint256"
        },
        {
          "internalType": "uint256",
          "name": "newTime",
          "type": "uint256"
        }
      ],
      "name": "setTarifa",
      "outputs": [],
      "stateMutability": "nonpayable",
      "type": "function"
    },
    {
      "inputs": [
        {
          "internalType": "uint256",
          "name": "NTarifa",
          "type": "uint256"
        },
        {
          "internalType": "uint256",
          "name": "newCost",
          "type": "uint256"
        }
      ],
      "name": "setCoste",
      "outputs": [],
      "stateMutability": "nonpayable",
      "type": "function"
    },
    {
      "inputs": [
        {
          "internalType": "address",
          "name": "_direccion",
          "type": "address"
        }
      ],
      "name": "newPatinete",
      "outputs": [],
      "stateMutability": "nonpayable",
      "type": "function"
    },
    {
      "inputs": [],
      "name": "getPatinetes",
      "outputs": [
        {
          "internalType": "uint256[]",
          "name": "",
          "type": "uint256[]"
        }
      ],
      "stateMutability": "view",
      "type": "function",
      "constant": true
    },
    {
      "inputs": [],
      "name": "totalPatinetes",
      "outputs": [
        {
          "internalType": "uint256",
          "name": "",
          "type": "uint256"
        }
      ],
      "stateMutability": "view",
      "type": "function",
      "constant": true
    },
    {
      "inputs": [
        {
          "internalType": "uint256",
          "name": "_IdPatinete",
          "type": "uint256"
        }
      ],
      "name": "remaining",
      "outputs": [
        {
          "internalType": "uint256",
          "name": "",
          "type": "uint256"
        }
      ],
      "stateMutability": "view",
      "type": "function",
      "constant": true
    }
  ],
  "bytecode": "0x6080604052610e10600155610a8c600255610708600355610384600455603c60055560646006556032600755601e60085560146009556005600a553480156200004757600080fd5b50604051620024723803806200247283398181016040528101906200006d9190620002a7565b33600c60006101000a81548173ffffffffffffffffffffffffffffffffffffffff021916908373ffffffffffffffffffffffffffffffffffffffff16021790555080600b60006101000a81548173ffffffffffffffffffffffffffffffffffffffff021916908373ffffffffffffffffffffffffffffffffffffffff160217905550600b60009054906101000a900473ffffffffffffffffffffffffffffffffffffffff16600d60006101000a81548173ffffffffffffffffffffffffffffffffffffffff021916908373ffffffffffffffffffffffffffffffffffffffff160217905550600d60009054906101000a900473ffffffffffffffffffffffffffffffffffffffff1673ffffffffffffffffffffffffffffffffffffffff16636ea23e2f6040518163ffffffff1660e01b815260040160206040518083038186803b158015620001bb57600080fd5b505afa158015620001d0573d6000803e3d6000fd5b505050506040513d601f19601f82011682018060405250810190620001f691906200031e565b600e60006101000a81548173ffffffffffffffffffffffffffffffffffffffff021916908373ffffffffffffffffffffffffffffffffffffffff1602179055505062000350565b600080fd5b600073ffffffffffffffffffffffffffffffffffffffff82169050919050565b60006200026f8262000242565b9050919050565b620002818162000262565b81146200028d57600080fd5b50565b600081519050620002a18162000276565b92915050565b600060208284031215620002c057620002bf6200023d565b5b6000620002d08482850162000290565b91505092915050565b6000620002e68262000262565b9050919050565b620002f881620002d9565b81146200030457600080fd5b50565b6000815190506200031881620002ed565b92915050565b6000602082840312156200033757620003366200023d565b5b6000620003478482850162000307565b91505092915050565b61211280620003606000396000f3fe6080604052600436106101665760003560e01c80639671b24a116100d1578063d3becb471161008a578063e2a5d37c11610064578063e2a5d37c146104c8578063e3b37536146104f3578063f45cfca31461051e578063ff1b636d1461054957610166565b8063d3becb4714610465578063dc44082814610490578063dccb1ad7146104ac57610166565b80639671b24a1461035d578063aef57dbf14610388578063c6c3f874146103b3578063c9a6ac2a146103f3578063ce39f1421461041e578063d04650ad1461043a57610166565b80633e942172116101235780633e9421721461027957806344519b22146102955780634ec7e300146102c057806365a016e8146102dc5780636ea23e2f1461030757806379a4621b1461033257610166565b8063020596c61461016b5780630361bf14146101945780630a4b113c146101d157806328618921146101fa578063323724a11461022557806333667de51461024e575b600080fd5b34801561017757600080fd5b50610192600480360381019061018d9190611b0c565b610574565b005b3480156101a057600080fd5b506101bb60048036038101906101b69190611b4c565b610631565b6040516101c89190611b88565b60405180910390f35b3480156101dd57600080fd5b506101f860048036038101906101f39190611c01565b61069f565b005b34801561020657600080fd5b5061020f610895565b60405161021c9190611b88565b60405180910390f35b34801561023157600080fd5b5061024c60048036038101906102479190611b0c565b61089b565b005b34801561025a57600080fd5b50610263610958565b6040516102709190611c8d565b60405180910390f35b610293600480360381019061028e9190611b4c565b61097e565b005b3480156102a157600080fd5b506102aa610c67565b6040516102b79190611b88565b60405180910390f35b6102da60048036038101906102d59190611b4c565b610c6d565b005b3480156102e857600080fd5b506102f1610f56565b6040516102fe9190611b88565b60405180910390f35b34801561031357600080fd5b5061031c610f67565b6040516103299190611cc9565b60405180910390f35b34801561033e57600080fd5b50610347610f8d565b6040516103549190611b88565b60405180910390f35b34801561036957600080fd5b50610372610f93565b60405161037f9190611da2565b60405180910390f35b34801561039457600080fd5b5061039d6110ce565b6040516103aa9190611b88565b60405180910390f35b3480156103bf57600080fd5b506103da60048036038101906103d59190611b4c565b6110d4565b6040516103ea9493929190611df4565b60405180910390f35b3480156103ff57600080fd5b50610408611154565b6040516104159190611b88565b60405180910390f35b61043860048036038101906104339190611b4c565b61115a565b005b34801561044657600080fd5b5061044f611443565b60405161045c9190611b88565b60405180910390f35b34801561047157600080fd5b5061047a611449565b6040516104879190611b88565b60405180910390f35b6104aa60048036038101906104a59190611b4c565b61144f565b005b6104c660048036038101906104c19190611b4c565b611738565b005b3480156104d457600080fd5b506104dd611a21565b6040516104ea9190611b88565b60405180910390f35b3480156104ff57600080fd5b50610508611a27565b6040516105159190611b88565b60405180910390f35b34801561052a57600080fd5b50610533611a2d565b6040516105409190611b88565b60405180910390f35b34801561055557600080fd5b5061055e611a33565b60405161056b9190611e39565b60405180910390f35b600c60009054906101000a900473ffffffffffffffffffffffffffffffffffffffff1673ffffffffffffffffffffffffffffffffffffffff163373ffffffffffffffffffffffffffffffffffffffff16146105ce57600080fd5b60018214156105e3578060018190555061062d565b60028214156105f8578060028190555061062c565b600382141561060d578060038190555061062b565b6004821415610622578060048190555061062a565b806005819055505b5b5b5b5050565b600042600f838154811061064857610647611e54565b5b906000526020600020906004020160010154106106955742600f838154811061067457610673611e54565b5b9060005260206000209060040201600101546106909190611eb2565b610698565b60005b9050919050565b600c60009054906101000a900473ffffffffffffffffffffffffffffffffffffffff1673ffffffffffffffffffffffffffffffffffffffff163373ffffffffffffffffffffffffffffffffffffffff16146106f957600080fd5b60006107056000611a59565b90506107116000611a67565b610719611a7d565b8181600001818152505082816040019073ffffffffffffffffffffffffffffffffffffffff16908173ffffffffffffffffffffffffffffffffffffffff16815250506000816020018181525050600c60009054906101000a900473ffffffffffffffffffffffffffffffffffffffff16816060019073ffffffffffffffffffffffffffffffffffffffff16908173ffffffffffffffffffffffffffffffffffffffff1681525050600f819080600181540180825580915050600190039060005260206000209060040201600090919091909150600082015181600001556020820151816001015560408201518160020160006101000a81548173ffffffffffffffffffffffffffffffffffffffff021916908373ffffffffffffffffffffffffffffffffffffffff16021790555060608201518160030160006101000a81548173ffffffffffffffffffffffffffffffffffffffff021916908373ffffffffffffffffffffffffffffffffffffffff1602179055505050505050565b60015481565b600c60009054906101000a900473ffffffffffffffffffffffffffffffffffffffff1673ffffffffffffffffffffffffffffffffffffffff163373ffffffffffffffffffffffffffffffffffffffff16146108f557600080fd5b600182141561090a5780600681905550610954565b600282141561091f5780600781905550610953565b60038214156109345780600881905550610952565b60048214156109495780600981905550610951565b80600a819055505b5b5b5b5050565b600d60009054906101000a900473ffffffffffffffffffffffffffffffffffffffff1681565b600061098982610631565b1115610a0d57600f81815481106109a3576109a2611e54565b5b906000526020600020906004020160030160009054906101000a900473ffffffffffffffffffffffffffffffffffffffff1673ffffffffffffffffffffffffffffffffffffffff163373ffffffffffffffffffffffffffffffffffffffff1614610a0c57600080fd5b5b600854600e60009054906101000a900473ffffffffffffffffffffffffffffffffffffffff1673ffffffffffffffffffffffffffffffffffffffff1663dd62ed3e33306040518363ffffffff1660e01b8152600401610a6d929190611ee6565b60206040518083038186803b158015610a8557600080fd5b505afa158015610a99573d6000803e3d6000fd5b505050506040513d601f19601f82011682018060405250810190610abd9190611f24565b1015610ac857600080fd5b600e60009054906101000a900473ffffffffffffffffffffffffffffffffffffffff1673ffffffffffffffffffffffffffffffffffffffff166323b872dd33600f8481548110610b1b57610b1a611e54565b5b906000526020600020906004020160020160009054906101000a900473ffffffffffffffffffffffffffffffffffffffff166008546040518463ffffffff1660e01b8152600401610b6e93929190611f72565b602060405180830381600087803b158015610b8857600080fd5b505af1158015610b9c573d6000803e3d6000fd5b505050506040513d601f19601f82011682018060405250810190610bc09190611fe1565b610bc957600080fd5b33600f8281548110610bde57610bdd611e54565b5b906000526020600020906004020160030160006101000a81548173ffffffffffffffffffffffffffffffffffffffff021916908373ffffffffffffffffffffffffffffffffffffffff16021790555060035442610c3b919061200e565b600f8281548110610c4f57610c4e611e54565b5b90600052602060002090600402016001018190555050565b60055481565b6000610c7882610631565b1115610cfc57600f8181548110610c9257610c91611e54565b5b906000526020600020906004020160030160009054906101000a900473ffffffffffffffffffffffffffffffffffffffff1673ffffffffffffffffffffffffffffffffffffffff163373ffffffffffffffffffffffffffffffffffffffff1614610cfb57600080fd5b5b600754600e60009054906101000a900473ffffffffffffffffffffffffffffffffffffffff1673ffffffffffffffffffffffffffffffffffffffff1663dd62ed3e33306040518363ffffffff1660e01b8152600401610d5c929190611ee6565b60206040518083038186803b158015610d7457600080fd5b505afa158015610d88573d6000803e3d6000fd5b505050506040513d601f19601f82011682018060405250810190610dac9190611f24565b1015610db757600080fd5b600e60009054906101000a900473ffffffffffffffffffffffffffffffffffffffff1673ffffffffffffffffffffffffffffffffffffffff166323b872dd33600f8481548110610e0a57610e09611e54565b5b906000526020600020906004020160020160009054906101000a900473ffffffffffffffffffffffffffffffffffffffff166007546040518463ffffffff1660e01b8152600401610e5d93929190611f72565b602060405180830381600087803b158015610e7757600080fd5b505af1158015610e8b573d6000803e3d6000fd5b505050506040513d601f19601f82011682018060405250810190610eaf9190611fe1565b610eb857600080fd5b33600f8281548110610ecd57610ecc611e54565b5b906000526020600020906004020160030160006101000a81548173ffffffffffffffffffffffffffffffffffffffff021916908373ffffffffffffffffffffffffffffffffffffffff16021790555060025442610f2a919061200e565b600f8281548110610f3e57610f3d611e54565b5b90600052602060002090600402016001018190555050565b6000610f626000611a59565b905090565b600e60009054906101000a900473ffffffffffffffffffffffffffffffffffffffff1681565b60065481565b60606000600f8054905090506000805b82811015611002576000610fdb600f8381548110610fc457610fc3611e54565b5b906000526020600020906004020160000154610631565b11610fef578180610feb90612064565b9250505b8080610ffa90612064565b915050610fa3565b5060008167ffffffffffffffff81111561101f5761101e6120ad565b5b60405190808252806020026020018201604052801561104d5781602001602082028036833780820191505090505b50905060005b838110156110c457600061108b600f838154811061107457611073611e54565b5b906000526020600020906004020160000154610631565b116110b157808282815181106110a4576110a3611e54565b5b6020026020010181815250505b80806110bc90612064565b915050611053565b5080935050505090565b60035481565b600f81815481106110e457600080fd5b90600052602060002090600402016000915090508060000154908060010154908060020160009054906101000a900473ffffffffffffffffffffffffffffffffffffffff16908060030160009054906101000a900473ffffffffffffffffffffffffffffffffffffffff16905084565b60075481565b600061116582610631565b11156111e957600f818154811061117f5761117e611e54565b5b906000526020600020906004020160030160009054906101000a900473ffffffffffffffffffffffffffffffffffffffff1673ffffffffffffffffffffffffffffffffffffffff163373ffffffffffffffffffffffffffffffffffffffff16146111e857600080fd5b5b600a54600e60009054906101000a900473ffffffffffffffffffffffffffffffffffffffff1673ffffffffffffffffffffffffffffffffffffffff1663dd62ed3e33306040518363ffffffff1660e01b8152600401611249929190611ee6565b60206040518083038186803b15801561126157600080fd5b505afa158015611275573d6000803e3d6000fd5b505050506040513d601f19601f820116820180604052508101906112999190611f24565b10156112a457600080fd5b600e60009054906101000a900473ffffffffffffffffffffffffffffffffffffffff1673ffffffffffffffffffffffffffffffffffffffff166323b872dd33600f84815481106112f7576112f6611e54565b5b906000526020600020906004020160020160009054906101000a900473ffffffffffffffffffffffffffffffffffffffff16600a546040518463ffffffff1660e01b815260040161134a93929190611f72565b602060405180830381600087803b15801561136457600080fd5b505af1158015611378573d6000803e3d6000fd5b505050506040513d601f19601f8201168201806040525081019061139c9190611fe1565b6113a557600080fd5b33600f82815481106113ba576113b9611e54565b5b906000526020600020906004020160030160006101000a81548173ffffffffffffffffffffffffffffffffffffffff021916908373ffffffffffffffffffffffffffffffffffffffff16021790555060055442611417919061200e565b600f828154811061142b5761142a611e54565b5b90600052602060002090600402016001018190555050565b600a5481565b60025481565b600061145a82610631565b11156114de57600f818154811061147457611473611e54565b5b906000526020600020906004020160030160009054906101000a900473ffffffffffffffffffffffffffffffffffffffff1673ffffffffffffffffffffffffffffffffffffffff163373ffffffffffffffffffffffffffffffffffffffff16146114dd57600080fd5b5b600654600e60009054906101000a900473ffffffffffffffffffffffffffffffffffffffff1673ffffffffffffffffffffffffffffffffffffffff1663dd62ed3e33306040518363ffffffff1660e01b815260040161153e929190611ee6565b60206040518083038186803b15801561155657600080fd5b505afa15801561156a573d6000803e3d6000fd5b505050506040513d601f19601f8201168201806040525081019061158e9190611f24565b101561159957600080fd5b600e60009054906101000a900473ffffffffffffffffffffffffffffffffffffffff1673ffffffffffffffffffffffffffffffffffffffff166323b872dd33600f84815481106115ec576115eb611e54565b5b906000526020600020906004020160020160009054906101000a900473ffffffffffffffffffffffffffffffffffffffff166006546040518463ffffffff1660e01b815260040161163f93929190611f72565b602060405180830381600087803b15801561165957600080fd5b505af115801561166d573d6000803e3d6000fd5b505050506040513d601f19601f820116820180604052508101906116919190611fe1565b61169a57600080fd5b33600f82815481106116af576116ae611e54565b5b906000526020600020906004020160030160006101000a81548173ffffffffffffffffffffffffffffffffffffffff021916908373ffffffffffffffffffffffffffffffffffffffff1602179055506001544261170c919061200e565b600f82815481106117205761171f611e54565b5b90600052602060002090600402016001018190555050565b600061174382610631565b11156117c757600f818154811061175d5761175c611e54565b5b906000526020600020906004020160030160009054906101000a900473ffffffffffffffffffffffffffffffffffffffff1673ffffffffffffffffffffffffffffffffffffffff163373ffffffffffffffffffffffffffffffffffffffff16146117c657600080fd5b5b600954600e60009054906101000a900473ffffffffffffffffffffffffffffffffffffffff1673ffffffffffffffffffffffffffffffffffffffff1663dd62ed3e33306040518363ffffffff1660e01b8152600401611827929190611ee6565b60206040518083038186803b15801561183f57600080fd5b505afa158015611853573d6000803e3d6000fd5b505050506040513d601f19601f820116820180604052508101906118779190611f24565b101561188257600080fd5b600e60009054906101000a900473ffffffffffffffffffffffffffffffffffffffff1673ffffffffffffffffffffffffffffffffffffffff166323b872dd33600f84815481106118d5576118d4611e54565b5b906000526020600020906004020160020160009054906101000a900473ffffffffffffffffffffffffffffffffffffffff166009546040518463ffffffff1660e01b815260040161192893929190611f72565b602060405180830381600087803b15801561194257600080fd5b505af1158015611956573d6000803e3d6000fd5b505050506040513d601f19601f8201168201806040525081019061197a9190611fe1565b61198357600080fd5b33600f828154811061199857611997611e54565b5b906000526020600020906004020160030160006101000a81548173ffffffffffffffffffffffffffffffffffffffff021916908373ffffffffffffffffffffffffffffffffffffffff160217905550600454426119f5919061200e565b600f8281548110611a0957611a08611e54565b5b90600052602060002090600402016001018190555050565b60085481565b60045481565b60095481565b600c60009054906101000a900473ffffffffffffffffffffffffffffffffffffffff1681565b600081600001549050919050565b6001816000016000828254019250508190555050565b60405180608001604052806000815260200160008152602001600073ffffffffffffffffffffffffffffffffffffffff168152602001600073ffffffffffffffffffffffffffffffffffffffff1681525090565b600080fd5b6000819050919050565b611ae981611ad6565b8114611af457600080fd5b50565b600081359050611b0681611ae0565b92915050565b60008060408385031215611b2357611b22611ad1565b5b6000611b3185828601611af7565b9250506020611b4285828601611af7565b9150509250929050565b600060208284031215611b6257611b61611ad1565b5b6000611b7084828501611af7565b91505092915050565b611b8281611ad6565b82525050565b6000602082019050611b9d6000830184611b79565b92915050565b600073ffffffffffffffffffffffffffffffffffffffff82169050919050565b6000611bce82611ba3565b9050919050565b611bde81611bc3565b8114611be957600080fd5b50565b600081359050611bfb81611bd5565b92915050565b600060208284031215611c1757611c16611ad1565b5b6000611c2584828501611bec565b91505092915050565b6000819050919050565b6000611c53611c4e611c4984611ba3565b611c2e565b611ba3565b9050919050565b6000611c6582611c38565b9050919050565b6000611c7782611c5a565b9050919050565b611c8781611c6c565b82525050565b6000602082019050611ca26000830184611c7e565b92915050565b6000611cb382611c5a565b9050919050565b611cc381611ca8565b82525050565b6000602082019050611cde6000830184611cba565b92915050565b600081519050919050565b600082825260208201905092915050565b6000819050602082019050919050565b611d1981611ad6565b82525050565b6000611d2b8383611d10565b60208301905092915050565b6000602082019050919050565b6000611d4f82611ce4565b611d598185611cef565b9350611d6483611d00565b8060005b83811015611d95578151611d7c8882611d1f565b9750611d8783611d37565b925050600181019050611d68565b5085935050505092915050565b60006020820190508181036000830152611dbc8184611d44565b905092915050565b6000611dcf82611ba3565b9050919050565b611ddf81611dc4565b82525050565b611dee81611bc3565b82525050565b6000608082019050611e096000830187611b79565b611e166020830186611b79565b611e236040830185611dd6565b611e306060830184611de5565b95945050505050565b6000602082019050611e4e6000830184611de5565b92915050565b7f4e487b7100000000000000000000000000000000000000000000000000000000600052603260045260246000fd5b7f4e487b7100000000000000000000000000000000000000000000000000000000600052601160045260246000fd5b6000611ebd82611ad6565b9150611ec883611ad6565b925082821015611edb57611eda611e83565b5b828203905092915050565b6000604082019050611efb6000830185611de5565b611f086020830184611de5565b9392505050565b600081519050611f1e81611ae0565b92915050565b600060208284031215611f3a57611f39611ad1565b5b6000611f4884828501611f0f565b91505092915050565b6000611f5c82611c5a565b9050919050565b611f6c81611f51565b82525050565b6000606082019050611f876000830186611de5565b611f946020830185611f63565b611fa16040830184611b79565b949350505050565b60008115159050919050565b611fbe81611fa9565b8114611fc957600080fd5b50565b600081519050611fdb81611fb5565b92915050565b600060208284031215611ff757611ff6611ad1565b5b600061200584828501611fcc565b91505092915050565b600061201982611ad6565b915061202483611ad6565b9250827fffffffffffffffffffffffffffffffffffffffffffffffffffffffffffffffff0382111561205957612058611e83565b5b828201905092915050565b600061206f82611ad6565b91507fffffffffffffffffffffffffffffffffffffffffffffffffffffffffffffffff8214156120a2576120a1611e83565b5b600182019050919050565b7f4e487b7100000000000000000000000000000000000000000000000000000000600052604160045260246000fdfea264697066735822122039eac6822d42c19bcb9b240366fcc917ff67c6f351ad19b6b0b3e73b5a617a8e64736f6c63430008090033",
  "immutableReferences": {},
  "source": "// SPDX-License-Identifier: MIT\npragma solidity ^0.8.2;\n\nimport \"@openzeppelin/contracts/utils/Counters.sol\";\nimport \"./ViCOINSale.sol\";\nimport \"./ViCOIN.sol\";\n\n/*\n * Ver que pasa con importar el ViCOIN contract\n */\n\ncontract Tarifas {\n\n    using Counters for Counters.Counter;\n    Counters.Counter private cuentaPatinetes;\n    \n    uint256 public TiempoT1 = 1 hours;\n    uint256 public TiempoT2 = 45 minutes;\n    uint256 public TiempoT3 = 30 minutes;\n    uint256 public TiempoT4 = 15 minutes;\n    uint256 public TiempoDemo = 1 minutes;\n\n    //Los costes en unidades de ViC (son indivisibles de momento)\n    uint256 public CosteT1 = 100;\n    uint256 public CosteT2 = 50;\n    uint256 public CosteT3 = 30;\n    uint256 public CosteT4 = 20;\n    uint256 public CosteDemo = 5;\n\n    address dirContrato;\n    address public Admin;\n    ViCOINSale public ViCSale;\n    ViCOIN public ViCERC20;\n    Patinete[] public Patinetes;\n\n    struct Patinete {\n        uint256 IdPatinete;\n        uint256 deadLine;\n        address payable direccion;\n        address usuarioActual;\n    }\n\n    constructor(address _dirContrato) {\n        Admin = msg.sender;\n        dirContrato = _dirContrato;\n        ViCSale = ViCOINSale(dirContrato);\n        ViCERC20 = ViCSale.ViCERC20();\n    }\n\n    //El front-end se debera ocupar de ver pedirle approve en caso de no tenerlo.\n    //No hay forma de hacerlo en el back\n    function tarifa1(uint256 _IdPatinete) public payable {\n        if(remaining(_IdPatinete) > 0){\n            require(msg.sender == Patinetes[_IdPatinete].usuarioActual);\n        }\n        require(ViCERC20.allowance(msg.sender, address(this)) >= CosteT1);\n        require(\n            ViCERC20.transferFrom(\n                msg.sender,\n                Patinetes[_IdPatinete].direccion,\n                CosteT1\n            )\n        );\n        Patinetes[_IdPatinete].usuarioActual = msg.sender;\n        Patinetes[_IdPatinete].deadLine = block.timestamp + TiempoT1;\n    }\n\n    function tarifa2(uint256 _IdPatinete) public payable {\n        if(remaining(_IdPatinete) > 0){\n            require(msg.sender == Patinetes[_IdPatinete].usuarioActual);\n        }\n        require(ViCERC20.allowance(msg.sender, address(this)) >= CosteT2);\n        require(\n            ViCERC20.transferFrom(\n                msg.sender,\n                Patinetes[_IdPatinete].direccion,\n                CosteT2\n            )\n        );\n        Patinetes[_IdPatinete].usuarioActual = msg.sender;\n        Patinetes[_IdPatinete].deadLine = block.timestamp + TiempoT2;\n    }\n\n    function tarifa3(uint256 _IdPatinete) public payable {\n        if(remaining(_IdPatinete) > 0){\n            require(msg.sender == Patinetes[_IdPatinete].usuarioActual);\n        }\n        require(ViCERC20.allowance(msg.sender, address(this)) >= CosteT3);\n        require(\n            ViCERC20.transferFrom(\n                msg.sender,\n                Patinetes[_IdPatinete].direccion,\n                CosteT3\n            )\n        );\n        Patinetes[_IdPatinete].usuarioActual = msg.sender;\n        Patinetes[_IdPatinete].deadLine = block.timestamp + TiempoT3;\n    }\n\n    function tarifa4(uint256 _IdPatinete) public payable {\n        if(remaining(_IdPatinete) > 0){\n            require(msg.sender == Patinetes[_IdPatinete].usuarioActual);\n        }\n        require(ViCERC20.allowance(msg.sender, address(this)) >= CosteT4);\n        require(\n            ViCERC20.transferFrom(\n                msg.sender,\n                Patinetes[_IdPatinete].direccion,\n                CosteT4\n            )\n        );\n        Patinetes[_IdPatinete].usuarioActual = msg.sender;\n        Patinetes[_IdPatinete].deadLine = block.timestamp + TiempoT4;\n    }\n\n    function tarifaDemo(uint256 _IdPatinete) public payable {\n        if(remaining(_IdPatinete) > 0){\n            require(msg.sender == Patinetes[_IdPatinete].usuarioActual);\n        }\n        require(ViCERC20.allowance(msg.sender, address(this)) >= CosteDemo);\n        require(\n            ViCERC20.transferFrom(\n                msg.sender,\n                Patinetes[_IdPatinete].direccion,\n                CosteDemo\n            )\n        );\n        Patinetes[_IdPatinete].usuarioActual = msg.sender;\n        Patinetes[_IdPatinete].deadLine = block.timestamp + TiempoDemo;\n    }\n\n    //Se le debe dar el tiempo en segundos\n    function setTarifa(uint256 NTarifa, uint256 newTime) public soloAdmin {\n        if (NTarifa == 1) {\n            TiempoT1 = newTime;\n        } else if (NTarifa == 2) {\n            TiempoT2 = newTime;\n        } else if (NTarifa == 3) {\n            TiempoT3 = newTime;\n        } else if (NTarifa == 4) {\n            TiempoT4 = newTime;\n        } else {\n            TiempoDemo = newTime;\n        }\n    }\n    //Se le debe dar el coste en unidades de ViC\n    function setCoste(uint256 NTarifa, uint256 newCost) public soloAdmin {\n        if (NTarifa == 1) {\n            CosteT1 = newCost;\n        } else if (NTarifa == 2) {\n            CosteT2 = newCost;\n        } else if (NTarifa == 3) {\n            CosteT3 = newCost;\n        } else if (NTarifa == 4) {\n            CosteT4 = newCost;\n        } else {\n            CosteDemo = newCost;\n        }\n    }\n\n    function newPatinete(address _direccion) public soloAdmin {\n        uint256 newPatId = cuentaPatinetes.current();\n        cuentaPatinetes.increment();\n        Patinete memory pat;\n        pat.IdPatinete = newPatId;\n        pat.direccion = payable(_direccion);\n        pat.deadLine = 0;\n        pat.usuarioActual = Admin;\n        Patinetes.push(pat);\n    }\n\n    //Devuelve los Ids de los patinetes disponibles para su uso\n    function getPatinetes() public view returns (uint256 [] memory){\n        uint256 iterator = Patinetes.length;\n        uint256 max = 0;\n        for(uint256 i = 0; i < iterator; i++){\n            if(remaining(Patinetes[i].IdPatinete) <= 0){\n                max++;\n            }\n        }\n        uint256[] memory Ids = new uint256[](max);\n        for(uint256 i = 0; i < iterator; i++){\n            if(remaining(Patinetes[i].IdPatinete) <= 0){\n                Ids[i] = i;\n            }\n        }\n        return Ids;\n    }\n    \n    function totalPatinetes() public view returns(uint256){\n        return cuentaPatinetes.current();\n    }\n\n    //Devuelve el tiempo que queda de uso en segundos\n    function remaining(uint256 _IdPatinete) public view returns (uint256) {\n        return (Patinetes[_IdPatinete].deadLine < block.timestamp) ? (0) : (Patinetes[_IdPatinete].deadLine - block.timestamp);\n    }\n\n    modifier soloAdmin() {\n        require(msg.sender == Admin);\n        _;\n    }\n}\n",
  "sourcePath": "/home/santi/LPRO-ViCOIN/backend/contracts/Tarifas.sol",
  "compiler": {
    "name": "solc",
    "version": "0.8.9+commit.e5eed63a.Emscripten.clang"
  },
  "schemaVersion": "3.4.3",
  "updatedAt": "2022-02-26T19:02:47.245Z",
  "networkType": "ethereum",
  "devdoc": {
    "kind": "dev",
    "methods": {},
    "version": 1
  },
  "userdoc": {
    "kind": "user",
    "methods": {},
    "version": 1
  }
}