{
  "contractName": "Tarifas",
  "abi": [
    {
      "inputs": [
        {
          "internalType": "address",
          "name": "_dirContrato",
          "type": "address"
        }
      ],
      "stateMutability": "nonpayable",
      "type": "constructor"
    },
    {
      "inputs": [],
      "name": "Admin",
      "outputs": [
        {
          "internalType": "address",
          "name": "",
          "type": "address"
        }
      ],
      "stateMutability": "view",
      "type": "function"
    },
    {
      "inputs": [],
      "name": "CosteDemo",
      "outputs": [
        {
          "internalType": "uint256",
          "name": "",
          "type": "uint256"
        }
      ],
      "stateMutability": "view",
      "type": "function"
    },
    {
      "inputs": [],
      "name": "CosteT1",
      "outputs": [
        {
          "internalType": "uint256",
          "name": "",
          "type": "uint256"
        }
      ],
      "stateMutability": "view",
      "type": "function"
    },
    {
      "inputs": [],
      "name": "CosteT2",
      "outputs": [
        {
          "internalType": "uint256",
          "name": "",
          "type": "uint256"
        }
      ],
      "stateMutability": "view",
      "type": "function"
    },
    {
      "inputs": [],
      "name": "CosteT3",
      "outputs": [
        {
          "internalType": "uint256",
          "name": "",
          "type": "uint256"
        }
      ],
      "stateMutability": "view",
      "type": "function"
    },
    {
      "inputs": [],
      "name": "CosteT4",
      "outputs": [
        {
          "internalType": "uint256",
          "name": "",
          "type": "uint256"
        }
      ],
      "stateMutability": "view",
      "type": "function"
    },
    {
      "inputs": [
        {
          "internalType": "uint256",
          "name": "",
          "type": "uint256"
        }
      ],
      "name": "Patinetes",
      "outputs": [
        {
          "internalType": "uint256",
          "name": "IdPatinete",
          "type": "uint256"
        },
        {
          "internalType": "uint256",
          "name": "deadLine",
          "type": "uint256"
        },
        {
          "internalType": "address payable",
          "name": "direccion",
          "type": "address"
        },
        {
          "internalType": "address",
          "name": "usuarioActual",
          "type": "address"
        }
      ],
      "stateMutability": "view",
      "type": "function"
    },
    {
      "inputs": [],
      "name": "TiempoDemo",
      "outputs": [
        {
          "internalType": "uint256",
          "name": "",
          "type": "uint256"
        }
      ],
      "stateMutability": "view",
      "type": "function"
    },
    {
      "inputs": [],
      "name": "TiempoT1",
      "outputs": [
        {
          "internalType": "uint256",
          "name": "",
          "type": "uint256"
        }
      ],
      "stateMutability": "view",
      "type": "function"
    },
    {
      "inputs": [],
      "name": "TiempoT2",
      "outputs": [
        {
          "internalType": "uint256",
          "name": "",
          "type": "uint256"
        }
      ],
      "stateMutability": "view",
      "type": "function"
    },
    {
      "inputs": [],
      "name": "TiempoT3",
      "outputs": [
        {
          "internalType": "uint256",
          "name": "",
          "type": "uint256"
        }
      ],
      "stateMutability": "view",
      "type": "function"
    },
    {
      "inputs": [],
      "name": "TiempoT4",
      "outputs": [
        {
          "internalType": "uint256",
          "name": "",
          "type": "uint256"
        }
      ],
      "stateMutability": "view",
      "type": "function"
    },
    {
      "inputs": [],
      "name": "ViCERC20",
      "outputs": [
        {
          "internalType": "contract ViCOIN",
          "name": "",
          "type": "address"
        }
      ],
      "stateMutability": "view",
      "type": "function"
    },
    {
      "inputs": [],
      "name": "ViCSale",
      "outputs": [
        {
          "internalType": "contract ViCOINSale",
          "name": "",
          "type": "address"
        }
      ],
      "stateMutability": "view",
      "type": "function"
    },
    {
      "inputs": [
        {
          "internalType": "uint256",
          "name": "_IdPatinete",
          "type": "uint256"
        }
      ],
      "name": "tarifa1",
      "outputs": [],
      "stateMutability": "nonpayable",
      "type": "function"
    },
    {
      "inputs": [
        {
          "internalType": "uint256",
          "name": "_IdPatinete",
          "type": "uint256"
        }
      ],
      "name": "tarifa2",
      "outputs": [],
      "stateMutability": "nonpayable",
      "type": "function"
    },
    {
      "inputs": [
        {
          "internalType": "uint256",
          "name": "_IdPatinete",
          "type": "uint256"
        }
      ],
      "name": "tarifa3",
      "outputs": [],
      "stateMutability": "nonpayable",
      "type": "function"
    },
    {
      "inputs": [
        {
          "internalType": "uint256",
          "name": "_IdPatinete",
          "type": "uint256"
        }
      ],
      "name": "tarifa4",
      "outputs": [],
      "stateMutability": "nonpayable",
      "type": "function"
    },
    {
      "inputs": [
        {
          "internalType": "uint256",
          "name": "_IdPatinete",
          "type": "uint256"
        }
      ],
      "name": "tarifaDemo",
      "outputs": [],
      "stateMutability": "nonpayable",
      "type": "function"
    },
    {
      "inputs": [
        {
          "internalType": "uint256",
          "name": "NTarifa",
          "type": "uint256"
        },
        {
          "internalType": "uint256",
          "name": "newTime",
          "type": "uint256"
        }
      ],
      "name": "setTarifa",
      "outputs": [],
      "stateMutability": "nonpayable",
      "type": "function"
    },
    {
      "inputs": [
        {
          "internalType": "uint256",
          "name": "NTarifa",
          "type": "uint256"
        },
        {
          "internalType": "uint256",
          "name": "newCost",
          "type": "uint256"
        }
      ],
      "name": "setCoste",
      "outputs": [],
      "stateMutability": "nonpayable",
      "type": "function"
    },
    {
      "inputs": [
        {
          "internalType": "address",
          "name": "_direccion",
          "type": "address"
        }
      ],
      "name": "newPatinete",
      "outputs": [],
      "stateMutability": "nonpayable",
      "type": "function"
    },
    {
      "inputs": [],
      "name": "getPatinetes",
      "outputs": [
        {
          "internalType": "uint256[]",
          "name": "",
          "type": "uint256[]"
        }
      ],
      "stateMutability": "view",
      "type": "function"
    },
    {
      "inputs": [],
      "name": "totalPatinetes",
      "outputs": [
        {
          "internalType": "uint256",
          "name": "",
          "type": "uint256"
        }
      ],
      "stateMutability": "view",
      "type": "function"
    },
    {
      "inputs": [
        {
          "internalType": "uint256",
          "name": "_IdPatinete",
          "type": "uint256"
        }
      ],
      "name": "remaining",
      "outputs": [
        {
          "internalType": "uint256",
          "name": "",
          "type": "uint256"
        }
      ],
      "stateMutability": "view",
      "type": "function"
    }
  ],
  "bytecode": "0x6080604052610e10600155610a8c60025561070860035561038460045560b460055567f9ccd8a1c508000060065567d02ab486cedc0000600755678ac7230489e80000600855674563918244f40000600955670de0b6b3a7640000600a553480156200006a57600080fd5b506040516200239e3803806200239e8339818101604052810190620000909190620002ca565b33600c60006101000a81548173ffffffffffffffffffffffffffffffffffffffff021916908373ffffffffffffffffffffffffffffffffffffffff16021790555080600b60006101000a81548173ffffffffffffffffffffffffffffffffffffffff021916908373ffffffffffffffffffffffffffffffffffffffff160217905550600b60009054906101000a900473ffffffffffffffffffffffffffffffffffffffff16600d60006101000a81548173ffffffffffffffffffffffffffffffffffffffff021916908373ffffffffffffffffffffffffffffffffffffffff160217905550600d60009054906101000a900473ffffffffffffffffffffffffffffffffffffffff1673ffffffffffffffffffffffffffffffffffffffff16636ea23e2f6040518163ffffffff1660e01b815260040160206040518083038186803b158015620001de57600080fd5b505afa158015620001f3573d6000803e3d6000fd5b505050506040513d601f19601f8201168201806040525081019062000219919062000341565b600e60006101000a81548173ffffffffffffffffffffffffffffffffffffffff021916908373ffffffffffffffffffffffffffffffffffffffff1602179055505062000373565b600080fd5b600073ffffffffffffffffffffffffffffffffffffffff82169050919050565b6000620002928262000265565b9050919050565b620002a48162000285565b8114620002b057600080fd5b50565b600081519050620002c48162000299565b92915050565b600060208284031215620002e357620002e262000260565b5b6000620002f384828501620002b3565b91505092915050565b6000620003098262000285565b9050919050565b6200031b81620002fc565b81146200032757600080fd5b50565b6000815190506200033b8162000310565b92915050565b6000602082840312156200035a576200035962000260565b5b60006200036a848285016200032a565b91505092915050565b61201b80620003836000396000f3fe608060405234801561001057600080fd5b50600436106101735760003560e01c80639671b24a116100de578063d3becb4711610097578063e2a5d37c11610071578063e2a5d37c14610405578063e3b3753614610423578063f45cfca314610441578063ff1b636d1461045f57610173565b8063d3becb47146103af578063dc440828146103cd578063dccb1ad7146103e957610173565b80639671b24a146102e8578063aef57dbf14610306578063c6c3f87414610324578063c9a6ac2a14610357578063ce39f14214610375578063d04650ad1461039157610173565b80633e942172116101305780633e9421721461023857806344519b22146102545780634ec7e3001461027257806365a016e81461028e5780636ea23e2f146102ac57806379a4621b146102ca57610173565b8063020596c6146101785780630361bf14146101945780630a4b113c146101c457806328618921146101e0578063323724a1146101fe57806333667de51461021a575b600080fd5b610192600480360381019061018d9190611a15565b61047d565b005b6101ae60048036038101906101a99190611a55565b61053a565b6040516101bb9190611a91565b60405180910390f35b6101de60048036038101906101d99190611b0a565b6105a8565b005b6101e861079e565b6040516101f59190611a91565b60405180910390f35b61021860048036038101906102139190611a15565b6107a4565b005b610222610861565b60405161022f9190611b96565b60405180910390f35b610252600480360381019061024d9190611a55565b610887565b005b61025c610b70565b6040516102699190611a91565b60405180910390f35b61028c60048036038101906102879190611a55565b610b76565b005b610296610e5f565b6040516102a39190611a91565b60405180910390f35b6102b4610e70565b6040516102c19190611bd2565b60405180910390f35b6102d2610e96565b6040516102df9190611a91565b60405180910390f35b6102f0610e9c565b6040516102fd9190611cab565b60405180910390f35b61030e610fd7565b60405161031b9190611a91565b60405180910390f35b61033e60048036038101906103399190611a55565b610fdd565b60405161034e9493929190611cfd565b60405180910390f35b61035f61105d565b60405161036c9190611a91565b60405180910390f35b61038f600480360381019061038a9190611a55565b611063565b005b61039961134c565b6040516103a69190611a91565b60405180910390f35b6103b7611352565b6040516103c49190611a91565b60405180910390f35b6103e760048036038101906103e29190611a55565b611358565b005b61040360048036038101906103fe9190611a55565b611641565b005b61040d61192a565b60405161041a9190611a91565b60405180910390f35b61042b611930565b6040516104389190611a91565b60405180910390f35b610449611936565b6040516104569190611a91565b60405180910390f35b61046761193c565b6040516104749190611d42565b60405180910390f35b600c60009054906101000a900473ffffffffffffffffffffffffffffffffffffffff1673ffffffffffffffffffffffffffffffffffffffff163373ffffffffffffffffffffffffffffffffffffffff16146104d757600080fd5b60018214156104ec5780600181905550610536565b60028214156105015780600281905550610535565b60038214156105165780600381905550610534565b600482141561052b5780600481905550610533565b806005819055505b5b5b5b5050565b600042600f838154811061055157610550611d5d565b5b9060005260206000209060040201600101541061059e5742600f838154811061057d5761057c611d5d565b5b9060005260206000209060040201600101546105999190611dbb565b6105a1565b60005b9050919050565b600c60009054906101000a900473ffffffffffffffffffffffffffffffffffffffff1673ffffffffffffffffffffffffffffffffffffffff163373ffffffffffffffffffffffffffffffffffffffff161461060257600080fd5b600061060e6000611962565b905061061a6000611970565b610622611986565b8181600001818152505082816040019073ffffffffffffffffffffffffffffffffffffffff16908173ffffffffffffffffffffffffffffffffffffffff16815250506000816020018181525050600c60009054906101000a900473ffffffffffffffffffffffffffffffffffffffff16816060019073ffffffffffffffffffffffffffffffffffffffff16908173ffffffffffffffffffffffffffffffffffffffff1681525050600f819080600181540180825580915050600190039060005260206000209060040201600090919091909150600082015181600001556020820151816001015560408201518160020160006101000a81548173ffffffffffffffffffffffffffffffffffffffff021916908373ffffffffffffffffffffffffffffffffffffffff16021790555060608201518160030160006101000a81548173ffffffffffffffffffffffffffffffffffffffff021916908373ffffffffffffffffffffffffffffffffffffffff1602179055505050505050565b60015481565b600c60009054906101000a900473ffffffffffffffffffffffffffffffffffffffff1673ffffffffffffffffffffffffffffffffffffffff163373ffffffffffffffffffffffffffffffffffffffff16146107fe57600080fd5b6001821415610813578060068190555061085d565b6002821415610828578060078190555061085c565b600382141561083d578060088190555061085b565b6004821415610852578060098190555061085a565b80600a819055505b5b5b5b5050565b600d60009054906101000a900473ffffffffffffffffffffffffffffffffffffffff1681565b60006108928261053a565b111561091657600f81815481106108ac576108ab611d5d565b5b906000526020600020906004020160030160009054906101000a900473ffffffffffffffffffffffffffffffffffffffff1673ffffffffffffffffffffffffffffffffffffffff163373ffffffffffffffffffffffffffffffffffffffff161461091557600080fd5b5b600854600e60009054906101000a900473ffffffffffffffffffffffffffffffffffffffff1673ffffffffffffffffffffffffffffffffffffffff1663dd62ed3e33306040518363ffffffff1660e01b8152600401610976929190611def565b60206040518083038186803b15801561098e57600080fd5b505afa1580156109a2573d6000803e3d6000fd5b505050506040513d601f19601f820116820180604052508101906109c69190611e2d565b10156109d157600080fd5b600e60009054906101000a900473ffffffffffffffffffffffffffffffffffffffff1673ffffffffffffffffffffffffffffffffffffffff166323b872dd33600f8481548110610a2457610a23611d5d565b5b906000526020600020906004020160020160009054906101000a900473ffffffffffffffffffffffffffffffffffffffff166008546040518463ffffffff1660e01b8152600401610a7793929190611e7b565b602060405180830381600087803b158015610a9157600080fd5b505af1158015610aa5573d6000803e3d6000fd5b505050506040513d601f19601f82011682018060405250810190610ac99190611eea565b610ad257600080fd5b33600f8281548110610ae757610ae6611d5d565b5b906000526020600020906004020160030160006101000a81548173ffffffffffffffffffffffffffffffffffffffff021916908373ffffffffffffffffffffffffffffffffffffffff16021790555060035442610b449190611f17565b600f8281548110610b5857610b57611d5d565b5b90600052602060002090600402016001018190555050565b60055481565b6000610b818261053a565b1115610c0557600f8181548110610b9b57610b9a611d5d565b5b906000526020600020906004020160030160009054906101000a900473ffffffffffffffffffffffffffffffffffffffff1673ffffffffffffffffffffffffffffffffffffffff163373ffffffffffffffffffffffffffffffffffffffff1614610c0457600080fd5b5b600754600e60009054906101000a900473ffffffffffffffffffffffffffffffffffffffff1673ffffffffffffffffffffffffffffffffffffffff1663dd62ed3e33306040518363ffffffff1660e01b8152600401610c65929190611def565b60206040518083038186803b158015610c7d57600080fd5b505afa158015610c91573d6000803e3d6000fd5b505050506040513d601f19601f82011682018060405250810190610cb59190611e2d565b1015610cc057600080fd5b600e60009054906101000a900473ffffffffffffffffffffffffffffffffffffffff1673ffffffffffffffffffffffffffffffffffffffff166323b872dd33600f8481548110610d1357610d12611d5d565b5b906000526020600020906004020160020160009054906101000a900473ffffffffffffffffffffffffffffffffffffffff166007546040518463ffffffff1660e01b8152600401610d6693929190611e7b565b602060405180830381600087803b158015610d8057600080fd5b505af1158015610d94573d6000803e3d6000fd5b505050506040513d601f19601f82011682018060405250810190610db89190611eea565b610dc157600080fd5b33600f8281548110610dd657610dd5611d5d565b5b906000526020600020906004020160030160006101000a81548173ffffffffffffffffffffffffffffffffffffffff021916908373ffffffffffffffffffffffffffffffffffffffff16021790555060025442610e339190611f17565b600f8281548110610e4757610e46611d5d565b5b90600052602060002090600402016001018190555050565b6000610e6b6000611962565b905090565b600e60009054906101000a900473ffffffffffffffffffffffffffffffffffffffff1681565b60065481565b60606000600f8054905090506000805b82811015610f0b576000610ee4600f8381548110610ecd57610ecc611d5d565b5b90600052602060002090600402016000015461053a565b11610ef8578180610ef490611f6d565b9250505b8080610f0390611f6d565b915050610eac565b5060008167ffffffffffffffff811115610f2857610f27611fb6565b5b604051908082528060200260200182016040528015610f565781602001602082028036833780820191505090505b50905060005b83811015610fcd576000610f94600f8381548110610f7d57610f7c611d5d565b5b90600052602060002090600402016000015461053a565b11610fba5780828281518110610fad57610fac611d5d565b5b6020026020010181815250505b8080610fc590611f6d565b915050610f5c565b5080935050505090565b60035481565b600f8181548110610fed57600080fd5b90600052602060002090600402016000915090508060000154908060010154908060020160009054906101000a900473ffffffffffffffffffffffffffffffffffffffff16908060030160009054906101000a900473ffffffffffffffffffffffffffffffffffffffff16905084565b60075481565b600061106e8261053a565b11156110f257600f818154811061108857611087611d5d565b5b906000526020600020906004020160030160009054906101000a900473ffffffffffffffffffffffffffffffffffffffff1673ffffffffffffffffffffffffffffffffffffffff163373ffffffffffffffffffffffffffffffffffffffff16146110f157600080fd5b5b600a54600e60009054906101000a900473ffffffffffffffffffffffffffffffffffffffff1673ffffffffffffffffffffffffffffffffffffffff1663dd62ed3e33306040518363ffffffff1660e01b8152600401611152929190611def565b60206040518083038186803b15801561116a57600080fd5b505afa15801561117e573d6000803e3d6000fd5b505050506040513d601f19601f820116820180604052508101906111a29190611e2d565b10156111ad57600080fd5b600e60009054906101000a900473ffffffffffffffffffffffffffffffffffffffff1673ffffffffffffffffffffffffffffffffffffffff166323b872dd33600f8481548110611200576111ff611d5d565b5b906000526020600020906004020160020160009054906101000a900473ffffffffffffffffffffffffffffffffffffffff16600a546040518463ffffffff1660e01b815260040161125393929190611e7b565b602060405180830381600087803b15801561126d57600080fd5b505af1158015611281573d6000803e3d6000fd5b505050506040513d601f19601f820116820180604052508101906112a59190611eea565b6112ae57600080fd5b33600f82815481106112c3576112c2611d5d565b5b906000526020600020906004020160030160006101000a81548173ffffffffffffffffffffffffffffffffffffffff021916908373ffffffffffffffffffffffffffffffffffffffff160217905550600554426113209190611f17565b600f828154811061133457611333611d5d565b5b90600052602060002090600402016001018190555050565b600a5481565b60025481565b60006113638261053a565b11156113e757600f818154811061137d5761137c611d5d565b5b906000526020600020906004020160030160009054906101000a900473ffffffffffffffffffffffffffffffffffffffff1673ffffffffffffffffffffffffffffffffffffffff163373ffffffffffffffffffffffffffffffffffffffff16146113e657600080fd5b5b600654600e60009054906101000a900473ffffffffffffffffffffffffffffffffffffffff1673ffffffffffffffffffffffffffffffffffffffff1663dd62ed3e33306040518363ffffffff1660e01b8152600401611447929190611def565b60206040518083038186803b15801561145f57600080fd5b505afa158015611473573d6000803e3d6000fd5b505050506040513d601f19601f820116820180604052508101906114979190611e2d565b10156114a257600080fd5b600e60009054906101000a900473ffffffffffffffffffffffffffffffffffffffff1673ffffffffffffffffffffffffffffffffffffffff166323b872dd33600f84815481106114f5576114f4611d5d565b5b906000526020600020906004020160020160009054906101000a900473ffffffffffffffffffffffffffffffffffffffff166006546040518463ffffffff1660e01b815260040161154893929190611e7b565b602060405180830381600087803b15801561156257600080fd5b505af1158015611576573d6000803e3d6000fd5b505050506040513d601f19601f8201168201806040525081019061159a9190611eea565b6115a357600080fd5b33600f82815481106115b8576115b7611d5d565b5b906000526020600020906004020160030160006101000a81548173ffffffffffffffffffffffffffffffffffffffff021916908373ffffffffffffffffffffffffffffffffffffffff160217905550600154426116159190611f17565b600f828154811061162957611628611d5d565b5b90600052602060002090600402016001018190555050565b600061164c8261053a565b11156116d057600f818154811061166657611665611d5d565b5b906000526020600020906004020160030160009054906101000a900473ffffffffffffffffffffffffffffffffffffffff1673ffffffffffffffffffffffffffffffffffffffff163373ffffffffffffffffffffffffffffffffffffffff16146116cf57600080fd5b5b600954600e60009054906101000a900473ffffffffffffffffffffffffffffffffffffffff1673ffffffffffffffffffffffffffffffffffffffff1663dd62ed3e33306040518363ffffffff1660e01b8152600401611730929190611def565b60206040518083038186803b15801561174857600080fd5b505afa15801561175c573d6000803e3d6000fd5b505050506040513d601f19601f820116820180604052508101906117809190611e2d565b101561178b57600080fd5b600e60009054906101000a900473ffffffffffffffffffffffffffffffffffffffff1673ffffffffffffffffffffffffffffffffffffffff166323b872dd33600f84815481106117de576117dd611d5d565b5b906000526020600020906004020160020160009054906101000a900473ffffffffffffffffffffffffffffffffffffffff166009546040518463ffffffff1660e01b815260040161183193929190611e7b565b602060405180830381600087803b15801561184b57600080fd5b505af115801561185f573d6000803e3d6000fd5b505050506040513d601f19601f820116820180604052508101906118839190611eea565b61188c57600080fd5b33600f82815481106118a1576118a0611d5d565b5b906000526020600020906004020160030160006101000a81548173ffffffffffffffffffffffffffffffffffffffff021916908373ffffffffffffffffffffffffffffffffffffffff160217905550600454426118fe9190611f17565b600f828154811061191257611911611d5d565b5b90600052602060002090600402016001018190555050565b60085481565b60045481565b60095481565b600c60009054906101000a900473ffffffffffffffffffffffffffffffffffffffff1681565b600081600001549050919050565b6001816000016000828254019250508190555050565b60405180608001604052806000815260200160008152602001600073ffffffffffffffffffffffffffffffffffffffff168152602001600073ffffffffffffffffffffffffffffffffffffffff1681525090565b600080fd5b6000819050919050565b6119f2816119df565b81146119fd57600080fd5b50565b600081359050611a0f816119e9565b92915050565b60008060408385031215611a2c57611a2b6119da565b5b6000611a3a85828601611a00565b9250506020611a4b85828601611a00565b9150509250929050565b600060208284031215611a6b57611a6a6119da565b5b6000611a7984828501611a00565b91505092915050565b611a8b816119df565b82525050565b6000602082019050611aa66000830184611a82565b92915050565b600073ffffffffffffffffffffffffffffffffffffffff82169050919050565b6000611ad782611aac565b9050919050565b611ae781611acc565b8114611af257600080fd5b50565b600081359050611b0481611ade565b92915050565b600060208284031215611b2057611b1f6119da565b5b6000611b2e84828501611af5565b91505092915050565b6000819050919050565b6000611b5c611b57611b5284611aac565b611b37565b611aac565b9050919050565b6000611b6e82611b41565b9050919050565b6000611b8082611b63565b9050919050565b611b9081611b75565b82525050565b6000602082019050611bab6000830184611b87565b92915050565b6000611bbc82611b63565b9050919050565b611bcc81611bb1565b82525050565b6000602082019050611be76000830184611bc3565b92915050565b600081519050919050565b600082825260208201905092915050565b6000819050602082019050919050565b611c22816119df565b82525050565b6000611c348383611c19565b60208301905092915050565b6000602082019050919050565b6000611c5882611bed565b611c628185611bf8565b9350611c6d83611c09565b8060005b83811015611c9e578151611c858882611c28565b9750611c9083611c40565b925050600181019050611c71565b5085935050505092915050565b60006020820190508181036000830152611cc58184611c4d565b905092915050565b6000611cd882611aac565b9050919050565b611ce881611ccd565b82525050565b611cf781611acc565b82525050565b6000608082019050611d126000830187611a82565b611d1f6020830186611a82565b611d2c6040830185611cdf565b611d396060830184611cee565b95945050505050565b6000602082019050611d576000830184611cee565b92915050565b7f4e487b7100000000000000000000000000000000000000000000000000000000600052603260045260246000fd5b7f4e487b7100000000000000000000000000000000000000000000000000000000600052601160045260246000fd5b6000611dc6826119df565b9150611dd1836119df565b925082821015611de457611de3611d8c565b5b828203905092915050565b6000604082019050611e046000830185611cee565b611e116020830184611cee565b9392505050565b600081519050611e27816119e9565b92915050565b600060208284031215611e4357611e426119da565b5b6000611e5184828501611e18565b91505092915050565b6000611e6582611b63565b9050919050565b611e7581611e5a565b82525050565b6000606082019050611e906000830186611cee565b611e9d6020830185611e6c565b611eaa6040830184611a82565b949350505050565b60008115159050919050565b611ec781611eb2565b8114611ed257600080fd5b50565b600081519050611ee481611ebe565b92915050565b600060208284031215611f0057611eff6119da565b5b6000611f0e84828501611ed5565b91505092915050565b6000611f22826119df565b9150611f2d836119df565b9250827fffffffffffffffffffffffffffffffffffffffffffffffffffffffffffffffff03821115611f6257611f61611d8c565b5b828201905092915050565b6000611f78826119df565b91507fffffffffffffffffffffffffffffffffffffffffffffffffffffffffffffffff821415611fab57611faa611d8c565b5b600182019050919050565b7f4e487b7100000000000000000000000000000000000000000000000000000000600052604160045260246000fdfea26469706673582212209c08397e429ddd3d455db4ca51fd0d214a124f0e2ea47cbcaf347e5a7d09e82f64736f6c63430008090033",
  "immutableReferences": {},
  "source": "// SPDX-License-Identifier: MIT\npragma solidity ^0.8.2;\n\nimport \"@openzeppelin/contracts/utils/Counters.sol\";\nimport \"./ViCOINSale.sol\";\nimport \"./ViCOIN.sol\";\n\n/*\n * Ver que pasa con importar el ViCOIN contract\n */\n\ncontract Tarifas {\n\n    using Counters for Counters.Counter;\n    Counters.Counter private cuentaPatinetes;\n    \n    uint256 public TiempoT1 = 1 hours;\n    uint256 public TiempoT2 = 45 minutes;\n    uint256 public TiempoT3 = 30 minutes;\n    uint256 public TiempoT4 = 15 minutes;\n    uint256 public TiempoDemo = 3 minutes;\n\n    //Los costes en weis de ViC\n    uint256 public CosteT1 = 18 * 10 ** 18;\n    uint256 public CosteT2 = 15 * 10 ** 18;\n    uint256 public CosteT3 = 10 * 10 ** 18;\n    uint256 public CosteT4 = 5 * 10 ** 18;\n    uint256 public CosteDemo = 1 * 10 ** 18;\n\n    address dirContrato;\n    address public Admin;\n    ViCOINSale public ViCSale;\n    ViCOIN public ViCERC20;\n    Patinete[] public Patinetes;\n\n    struct Patinete {\n        uint256 IdPatinete;\n        uint256 deadLine;\n        address payable direccion;\n        address usuarioActual;\n    }\n\n    constructor(address _dirContrato) {\n        Admin = msg.sender;\n        dirContrato = _dirContrato;\n        ViCSale = ViCOINSale(dirContrato);\n        ViCERC20 = ViCSale.ViCERC20();\n    }\n\n    //El front-end se debera ocupar de ver pedirle approve en caso de no tenerlo.\n    //No hay forma de hacerlo en el back\n    function tarifa1(uint256 _IdPatinete) public {\n        if(remaining(_IdPatinete) > 0){\n            require(msg.sender == Patinetes[_IdPatinete].usuarioActual);\n        }\n        require(ViCERC20.allowance(msg.sender, address(this)) >= CosteT1);\n        require(\n            ViCERC20.transferFrom(\n                msg.sender,\n                Patinetes[_IdPatinete].direccion,\n                CosteT1\n            )\n        );\n        Patinetes[_IdPatinete].usuarioActual = msg.sender;\n        Patinetes[_IdPatinete].deadLine = block.timestamp + TiempoT1;\n    }\n\n    function tarifa2(uint256 _IdPatinete) public {\n        if(remaining(_IdPatinete) > 0){\n            require(msg.sender == Patinetes[_IdPatinete].usuarioActual);\n        }\n        require(ViCERC20.allowance(msg.sender, address(this)) >= CosteT2);\n        require(\n            ViCERC20.transferFrom(\n                msg.sender,\n                Patinetes[_IdPatinete].direccion,\n                CosteT2\n            )\n        );\n        Patinetes[_IdPatinete].usuarioActual = msg.sender;\n        Patinetes[_IdPatinete].deadLine = block.timestamp + TiempoT2;\n    }\n\n    function tarifa3(uint256 _IdPatinete) public {\n        if(remaining(_IdPatinete) > 0){\n            require(msg.sender == Patinetes[_IdPatinete].usuarioActual);\n        }\n        require(ViCERC20.allowance(msg.sender, address(this)) >= CosteT3);\n        require(\n            ViCERC20.transferFrom(\n                msg.sender,\n                Patinetes[_IdPatinete].direccion,\n                CosteT3\n            )\n        );\n        Patinetes[_IdPatinete].usuarioActual = msg.sender;\n        Patinetes[_IdPatinete].deadLine = block.timestamp + TiempoT3;\n    }\n\n    function tarifa4(uint256 _IdPatinete) public {\n        if(remaining(_IdPatinete) > 0){\n            require(msg.sender == Patinetes[_IdPatinete].usuarioActual);\n        }\n        require(ViCERC20.allowance(msg.sender, address(this)) >= CosteT4);\n        require(\n            ViCERC20.transferFrom(\n                msg.sender,\n                Patinetes[_IdPatinete].direccion,\n                CosteT4\n            )\n        );\n        Patinetes[_IdPatinete].usuarioActual = msg.sender;\n        Patinetes[_IdPatinete].deadLine = block.timestamp + TiempoT4;\n    }\n\n    function tarifaDemo(uint256 _IdPatinete) public {\n        if(remaining(_IdPatinete) > 0){\n            require(msg.sender == Patinetes[_IdPatinete].usuarioActual);\n        }\n        require(ViCERC20.allowance(msg.sender, address(this)) >= CosteDemo);\n        require(\n            ViCERC20.transferFrom(\n                msg.sender,\n                Patinetes[_IdPatinete].direccion,\n                CosteDemo\n            )\n        );\n        Patinetes[_IdPatinete].usuarioActual = msg.sender;\n        Patinetes[_IdPatinete].deadLine = block.timestamp + TiempoDemo;\n    }\n\n    //Se le debe dar el tiempo en segundos\n    function setTarifa(uint256 NTarifa, uint256 newTime) public soloAdmin {\n        if (NTarifa == 1) {\n            TiempoT1 = newTime;\n        } else if (NTarifa == 2) {\n            TiempoT2 = newTime;\n        } else if (NTarifa == 3) {\n            TiempoT3 = newTime;\n        } else if (NTarifa == 4) {\n            TiempoT4 = newTime;\n        } else {\n            TiempoDemo = newTime;\n        }\n    }\n    //Se le debe dar el coste en weis de ViC\n    function setCoste(uint256 NTarifa, uint256 newCost) public soloAdmin {\n        if (NTarifa == 1) {\n            CosteT1 = newCost;\n        } else if (NTarifa == 2) {\n            CosteT2 = newCost;\n        } else if (NTarifa == 3) {\n            CosteT3 = newCost;\n        } else if (NTarifa == 4) {\n            CosteT4 = newCost;\n        } else {\n            CosteDemo = newCost;\n        }\n    }\n\n    function newPatinete(address _direccion) public soloAdmin {\n        uint256 newPatId = cuentaPatinetes.current();\n        cuentaPatinetes.increment();\n        Patinete memory pat;\n        pat.IdPatinete = newPatId;\n        pat.direccion = payable(_direccion);\n        pat.deadLine = 0;\n        pat.usuarioActual = Admin;\n        Patinetes.push(pat);\n    }\n\n    //Devuelve los Ids de los patinetes disponibles para su uso\n    function getPatinetes() public view returns (uint256 [] memory){\n        uint256 iterator = Patinetes.length;\n        uint256 max = 0;\n        for(uint256 i = 0; i < iterator; i++){\n            if(remaining(Patinetes[i].IdPatinete) <= 0){\n                max++;\n            }\n        }\n        uint256[] memory Ids = new uint256[](max);\n        for(uint256 i = 0; i < iterator; i++){\n            if(remaining(Patinetes[i].IdPatinete) <= 0){\n                Ids[i] = i;\n            }\n        }\n        return Ids;\n    }\n    \n    function totalPatinetes() public view returns(uint256){\n        return cuentaPatinetes.current();\n    }\n\n    //Devuelve el tiempo que queda de uso en segundos\n    function remaining(uint256 _IdPatinete) public view returns (uint256) {\n        return (Patinetes[_IdPatinete].deadLine < block.timestamp) ? (0) : (Patinetes[_IdPatinete].deadLine - block.timestamp);\n    }\n\n    modifier soloAdmin() {\n        require(msg.sender == Admin);\n        _;\n    }\n}\n",
  "sourcePath": "/home/santi/LPRO-ViCOIN/backend/contracts/Tarifas.sol",
  "compiler": {
    "name": "solc",
    "version": "0.8.9+commit.e5eed63a.Emscripten.clang"
  },
  "schemaVersion": "3.4.3",
  "updatedAt": "2022-03-10T18:19:07.409Z",
  "devdoc": {
    "kind": "dev",
    "methods": {},
    "version": 1
  },
  "userdoc": {
    "kind": "user",
    "methods": {},
    "version": 1
  }
}